{
  "contractName": "Dex",
  "abi": [
    {
      "anonymous": false,
      "inputs": [
        {
          "indexed": true,
          "internalType": "address",
          "name": "previousOwner",
          "type": "address"
        },
        {
          "indexed": true,
          "internalType": "address",
          "name": "newOwner",
          "type": "address"
        }
      ],
      "name": "OwnershipTransferred",
      "type": "event"
    },
    {
      "inputs": [
        {
          "internalType": "bytes32",
          "name": "symbol",
          "type": "bytes32"
        },
        {
          "internalType": "address",
          "name": "tokenAddress",
          "type": "address"
        }
      ],
      "name": "addToken",
      "outputs": [],
      "stateMutability": "nonpayable",
      "type": "function"
    },
    {
      "inputs": [
        {
          "internalType": "address",
          "name": "",
          "type": "address"
        },
        {
          "internalType": "address",
          "name": "",
          "type": "address"
        }
      ],
      "name": "balances",
      "outputs": [
        {
          "internalType": "uint256",
          "name": "",
          "type": "uint256"
        }
      ],
      "stateMutability": "view",
      "type": "function"
    },
    {
      "inputs": [
        {
          "internalType": "uint256",
          "name": "amount",
          "type": "uint256"
        },
        {
          "internalType": "address",
          "name": "tokenAddress",
          "type": "address"
        }
      ],
      "name": "deposit",
      "outputs": [],
      "stateMutability": "nonpayable",
      "type": "function"
    },
    {
      "inputs": [],
      "name": "depositEth",
      "outputs": [],
      "stateMutability": "payable",
      "type": "function"
    },
    {
      "inputs": [
        {
          "internalType": "address",
          "name": "",
          "type": "address"
        },
        {
          "internalType": "uint256",
          "name": "",
          "type": "uint256"
        },
        {
          "internalType": "uint256",
          "name": "",
          "type": "uint256"
        }
      ],
      "name": "orderBook",
      "outputs": [
        {
          "internalType": "uint256",
          "name": "id",
          "type": "uint256"
        },
        {
          "internalType": "address",
          "name": "trader",
          "type": "address"
        },
        {
          "internalType": "enum Dex.Position",
          "name": "position",
          "type": "uint8"
        },
        {
          "internalType": "address",
          "name": "tokenAddress",
          "type": "address"
        },
        {
          "internalType": "uint256",
          "name": "amount",
          "type": "uint256"
        },
        {
          "internalType": "uint256",
          "name": "price",
          "type": "uint256"
        },
        {
          "internalType": "uint256",
          "name": "filled",
          "type": "uint256"
        }
      ],
      "stateMutability": "view",
      "type": "function"
    },
    {
      "inputs": [],
      "name": "orderId",
      "outputs": [
        {
          "internalType": "uint256",
          "name": "",
          "type": "uint256"
        }
      ],
      "stateMutability": "view",
      "type": "function"
    },
    {
      "inputs": [],
      "name": "owner",
      "outputs": [
        {
          "internalType": "address",
          "name": "",
          "type": "address"
        }
      ],
      "stateMutability": "view",
      "type": "function"
    },
    {
      "inputs": [],
      "name": "renounceOwnership",
      "outputs": [],
      "stateMutability": "nonpayable",
      "type": "function"
    },
    {
      "inputs": [
        {
          "internalType": "uint256",
          "name": "",
          "type": "uint256"
        }
      ],
      "name": "tokenList",
      "outputs": [
        {
          "internalType": "bytes32",
          "name": "",
          "type": "bytes32"
        }
      ],
      "stateMutability": "view",
      "type": "function"
    },
    {
      "inputs": [
        {
          "internalType": "address",
          "name": "",
          "type": "address"
        }
      ],
      "name": "tokens",
      "outputs": [
        {
          "internalType": "bytes32",
          "name": "symbol",
          "type": "bytes32"
        },
        {
          "internalType": "address",
          "name": "tokenAddress",
          "type": "address"
        }
      ],
      "stateMutability": "view",
      "type": "function"
    },
    {
      "inputs": [
        {
          "internalType": "address",
          "name": "newOwner",
          "type": "address"
        }
      ],
      "name": "transferOwnership",
      "outputs": [],
      "stateMutability": "nonpayable",
      "type": "function"
    },
    {
      "inputs": [
        {
          "internalType": "uint256",
          "name": "amount",
          "type": "uint256"
        },
        {
          "internalType": "address",
          "name": "tokenAddress",
          "type": "address"
        }
      ],
      "name": "withdraw",
      "outputs": [],
      "stateMutability": "nonpayable",
      "type": "function"
    },
    {
      "inputs": [
        {
          "internalType": "address",
          "name": "tokenAddress",
          "type": "address"
        },
        {
          "internalType": "enum Dex.Position",
          "name": "position",
          "type": "uint8"
        }
      ],
      "name": "getOrderBook",
      "outputs": [
        {
          "components": [
            {
              "internalType": "uint256",
              "name": "id",
              "type": "uint256"
            },
            {
              "internalType": "address",
              "name": "trader",
              "type": "address"
            },
            {
              "internalType": "enum Dex.Position",
              "name": "position",
              "type": "uint8"
            },
            {
              "internalType": "address",
              "name": "tokenAddress",
              "type": "address"
            },
            {
              "internalType": "uint256",
              "name": "amount",
              "type": "uint256"
            },
            {
              "internalType": "uint256",
              "name": "price",
              "type": "uint256"
            },
            {
              "internalType": "uint256",
              "name": "filled",
              "type": "uint256"
            }
          ],
          "internalType": "struct Dex.Order[]",
          "name": "",
          "type": "tuple[]"
        }
      ],
      "stateMutability": "view",
      "type": "function"
    },
    {
      "inputs": [
        {
          "internalType": "enum Dex.Position",
          "name": "position",
          "type": "uint8"
        },
        {
          "internalType": "address",
          "name": "tokenAddress",
          "type": "address"
        },
        {
          "internalType": "uint256",
          "name": "amount",
          "type": "uint256"
        },
        {
          "internalType": "uint256",
          "name": "price",
          "type": "uint256"
        }
      ],
      "name": "createLimitOrder",
      "outputs": [],
      "stateMutability": "nonpayable",
      "type": "function"
    },
    {
      "inputs": [
        {
          "internalType": "enum Dex.Position",
          "name": "position",
          "type": "uint8"
        },
        {
          "internalType": "address",
          "name": "tokenAddress",
          "type": "address"
        },
        {
          "internalType": "uint256",
          "name": "amount",
          "type": "uint256"
        }
      ],
      "name": "createMarketOrder",
      "outputs": [],
      "stateMutability": "nonpayable",
      "type": "function"
    }
  ],
  "bytecode": "0x60806040523480156200001157600080fd5b5062000032620000266200003860201b60201c565b6200004060201b60201c565b62000104565b600033905090565b60008060009054906101000a900473ffffffffffffffffffffffffffffffffffffffff169050816000806101000a81548173ffffffffffffffffffffffffffffffffffffffff021916908373ffffffffffffffffffffffffffffffffffffffff1602179055508173ffffffffffffffffffffffffffffffffffffffff168173ffffffffffffffffffffffffffffffffffffffff167f8be0079c531659141344cd1fd0a4f28419497f9722a3daafe3b4186f6b6457e060405160405180910390a35050565b61320d80620001146000396000f3fe6080604052600436106100e75760003560e01c8063888f38021161008a578063c23f001f11610059578063c23f001f146102aa578063e4860339146102e7578063f253c71114610325578063f2fde38b14610368576100e7565b8063888f3802146101dc5780638da5cb5b146102195780639776aacf146102445780639ead72221461026d576100e7565b8063442aed10116100c6578063442aed101461014a5780634d1eb947146101735780636e553f651461019c578063715018a6146101c5576100e7565b8062f714ce146100ec578063163de5e514610115578063439370b114610140575b600080fd5b3480156100f857600080fd5b50610113600480360381019061010e919061273c565b610391565b005b34801561012157600080fd5b5061012a61069b565b604051610137919061278b565b60405180910390f35b6101486106a1565b005b34801561015657600080fd5b50610171600480360381019061016c91906127cb565b6106f9565b005b34801561017f57600080fd5b5061019a60048036038101906101959190612832565b611372565b005b3480156101a857600080fd5b506101c360048036038101906101be919061273c565b611e42565b005b3480156101d157600080fd5b506101da61208f565b005b3480156101e857600080fd5b5061020360048036038101906101fe9190612885565b6120a3565b6040516102109190612a97565b60405180910390f35b34801561022557600080fd5b5061022e612274565b60405161023b9190612ac8565b60405180910390f35b34801561025057600080fd5b5061026b60048036038101906102669190612b19565b61229d565b005b34801561027957600080fd5b50610294600480360381019061028f9190612b59565b612390565b6040516102a19190612b95565b60405180910390f35b3480156102b657600080fd5b506102d160048036038101906102cc9190612bb0565b6123b4565b6040516102de919061278b565b60405180910390f35b3480156102f357600080fd5b5061030e60048036038101906103099190612bf0565b6123d9565b60405161031c929190612c1d565b60405180910390f35b34801561033157600080fd5b5061034c60048036038101906103479190612c46565b61241d565b60405161035f9796959493929190612ca8565b60405180910390f35b34801561037457600080fd5b5061038f600480360381019061038a9190612bf0565b6124d6565b005b80600073ffffffffffffffffffffffffffffffffffffffff16600160008373ffffffffffffffffffffffffffffffffffffffff1673ffffffffffffffffffffffffffffffffffffffff16815260200190815260200160002060010160009054906101000a900473ffffffffffffffffffffffffffffffffffffffff1673ffffffffffffffffffffffffffffffffffffffff1603610463576040517f08c379a000000000000000000000000000000000000000000000000000000000815260040161045a90612d74565b60405180910390fd5b82600260003373ffffffffffffffffffffffffffffffffffffffff1673ffffffffffffffffffffffffffffffffffffffff16815260200190815260200160002060008473ffffffffffffffffffffffffffffffffffffffff1673ffffffffffffffffffffffffffffffffffffffff168152602001908152602001600020541015610522576040517f08c379a000000000000000000000000000000000000000000000000000000000815260040161051990612de0565b60405180910390fd5b82600260003373ffffffffffffffffffffffffffffffffffffffff1673ffffffffffffffffffffffffffffffffffffffff16815260200190815260200160002060008473ffffffffffffffffffffffffffffffffffffffff1673ffffffffffffffffffffffffffffffffffffffff16815260200190815260200160002060008282546105ae9190612e2f565b92505081905550600160008373ffffffffffffffffffffffffffffffffffffffff1673ffffffffffffffffffffffffffffffffffffffff16815260200190815260200160002060010160009054906101000a900473ffffffffffffffffffffffffffffffffffffffff1673ffffffffffffffffffffffffffffffffffffffff1663a9059cbb33856040518363ffffffff1660e01b8152600401610652929190612e63565b6020604051808303816000875af1158015610671573d6000803e3d6000fd5b505050506040513d601f19601f820116820180604052508101906106959190612ec4565b50505050565b60055481565b34600360003373ffffffffffffffffffffffffffffffffffffffff1673ffffffffffffffffffffffffffffffffffffffff16815260200190815260200160002060008282546106f09190612ef1565b92505081905550565b6000600181111561070d5761070c61290f565b5b8460018111156107205761071f61290f565b5b036107815780826107319190612f25565b600360003373ffffffffffffffffffffffffffffffffffffffff1673ffffffffffffffffffffffffffffffffffffffff16815260200190815260200160002054101561077c57600080fd5b610837565b6001808111156107945761079361290f565b5b8460018111156107a7576107a661290f565b5b036108365781600260003373ffffffffffffffffffffffffffffffffffffffff1673ffffffffffffffffffffffffffffffffffffffff16815260200190815260200160002060008573ffffffffffffffffffffffffffffffffffffffff1673ffffffffffffffffffffffffffffffffffffffff16815260200190815260200160002054101561083557600080fd5b5b5b6000600660008573ffffffffffffffffffffffffffffffffffffffff1673ffffffffffffffffffffffffffffffffffffffff168152602001908152602001600020600086600181111561088d5761088c61290f565b5b81526020019081526020016000209050806040518060e0016040528060055481526020013373ffffffffffffffffffffffffffffffffffffffff1681526020018760018111156108e0576108df61290f565b5b81526020018673ffffffffffffffffffffffffffffffffffffffff168152602001858152602001848152602001600081525090806001815401808255809150506001900390600052602060002090600602016000909190919091506000820151816000015560208201518160010160006101000a81548173ffffffffffffffffffffffffffffffffffffffff021916908373ffffffffffffffffffffffffffffffffffffffff16021790555060408201518160010160146101000a81548160ff021916908360018111156109b7576109b661290f565b5b021790555060608201518160020160006101000a81548173ffffffffffffffffffffffffffffffffffffffff021916908373ffffffffffffffffffffffffffffffffffffffff1602179055506080820151816003015560a0820151816004015560c08201518160050155505060006001811115610a3757610a3661290f565b5b856001811115610a4a57610a4961290f565b5b03610ebd57600060018280549050610a629190612e2f565b90505b6000811115610eb757818181548110610a8157610a80612f67565b5b90600052602060002090600602016004015482600183610aa19190612e2f565b81548110610ab257610ab1612f67565b5b90600052602060002090600602016004015411610eb757600082600183610ad99190612e2f565b81548110610aea57610ae9612f67565b5b90600052602060002090600602016040518060e0016040529081600082015481526020016001820160009054906101000a900473ffffffffffffffffffffffffffffffffffffffff1673ffffffffffffffffffffffffffffffffffffffff1673ffffffffffffffffffffffffffffffffffffffff1681526020016001820160149054906101000a900460ff166001811115610b8857610b8761290f565b5b6001811115610b9a57610b9961290f565b5b81526020016002820160009054906101000a900473ffffffffffffffffffffffffffffffffffffffff1673ffffffffffffffffffffffffffffffffffffffff1673ffffffffffffffffffffffffffffffffffffffff16815260200160038201548152602001600482015481526020016005820154815250509050828281548110610c2757610c26612f67565b5b906000526020600020906006020183600184610c439190612e2f565b81548110610c5457610c53612f67565b5b9060005260206000209060060201600082015481600001556001820160009054906101000a900473ffffffffffffffffffffffffffffffffffffffff168160010160006101000a81548173ffffffffffffffffffffffffffffffffffffffff021916908373ffffffffffffffffffffffffffffffffffffffff1602179055506001820160149054906101000a900460ff168160010160146101000a81548160ff02191690836001811115610d0b57610d0a61290f565b5b02179055506002820160009054906101000a900473ffffffffffffffffffffffffffffffffffffffff168160020160006101000a81548173ffffffffffffffffffffffffffffffffffffffff021916908373ffffffffffffffffffffffffffffffffffffffff16021790555060038201548160030155600482015481600401556005820154816005015590505080838381548110610dac57610dab612f67565b5b90600052602060002090600602016000820151816000015560208201518160010160006101000a81548173ffffffffffffffffffffffffffffffffffffffff021916908373ffffffffffffffffffffffffffffffffffffffff16021790555060408201518160010160146101000a81548160ff02191690836001811115610e3657610e3561290f565b5b021790555060608201518160020160006101000a81548173ffffffffffffffffffffffffffffffffffffffff021916908373ffffffffffffffffffffffffffffffffffffffff1602179055506080820151816003015560a0820151816004015560c08201518160050155905050508080610eaf90612f96565b915050610a65565b50611353565b600180811115610ed057610ecf61290f565b5b856001811115610ee357610ee261290f565b5b0361135257600060018280549050610efb9190612e2f565b90505b600081111561135057818181548110610f1a57610f19612f67565b5b90600052602060002090600602016004015482600183610f3a9190612e2f565b81548110610f4b57610f4a612f67565b5b9060005260206000209060060201600401541061135057600082600183610f729190612e2f565b81548110610f8357610f82612f67565b5b90600052602060002090600602016040518060e0016040529081600082015481526020016001820160009054906101000a900473ffffffffffffffffffffffffffffffffffffffff1673ffffffffffffffffffffffffffffffffffffffff1673ffffffffffffffffffffffffffffffffffffffff1681526020016001820160149054906101000a900460ff1660018111156110215761102061290f565b5b60018111156110335761103261290f565b5b81526020016002820160009054906101000a900473ffffffffffffffffffffffffffffffffffffffff1673ffffffffffffffffffffffffffffffffffffffff1673ffffffffffffffffffffffffffffffffffffffff168152602001600382015481526020016004820154815260200160058201548152505090508282815481106110c0576110bf612f67565b5b9060005260206000209060060201836001846110dc9190612e2f565b815481106110ed576110ec612f67565b5b9060005260206000209060060201600082015481600001556001820160009054906101000a900473ffffffffffffffffffffffffffffffffffffffff168160010160006101000a81548173ffffffffffffffffffffffffffffffffffffffff021916908373ffffffffffffffffffffffffffffffffffffffff1602179055506001820160149054906101000a900460ff168160010160146101000a81548160ff021916908360018111156111a4576111a361290f565b5b02179055506002820160009054906101000a900473ffffffffffffffffffffffffffffffffffffffff168160020160006101000a81548173ffffffffffffffffffffffffffffffffffffffff021916908373ffffffffffffffffffffffffffffffffffffffff1602179055506003820154816003015560048201548160040155600582015481600501559050508083838154811061124557611244612f67565b5b90600052602060002090600602016000820151816000015560208201518160010160006101000a81548173ffffffffffffffffffffffffffffffffffffffff021916908373ffffffffffffffffffffffffffffffffffffffff16021790555060408201518160010160146101000a81548160ff021916908360018111156112cf576112ce61290f565b5b021790555060608201518160020160006101000a81548173ffffffffffffffffffffffffffffffffffffffff021916908373ffffffffffffffffffffffffffffffffffffffff1602179055506080820151816003015560a0820151816004015560c0820151816005015590505050808061134890612f96565b915050610efe565b505b5b6005600081548092919061136690612fbf565b91905055505050505050565b6001808111156113855761138461290f565b5b8360018111156113985761139761290f565b5b0361145d5780600260003373ffffffffffffffffffffffffffffffffffffffff1673ffffffffffffffffffffffffffffffffffffffff16815260200190815260200160002060008473ffffffffffffffffffffffffffffffffffffffff1673ffffffffffffffffffffffffffffffffffffffff16815260200190815260200160002054101561145c576040517f08c379a000000000000000000000000000000000000000000000000000000000815260040161145390613053565b60405180910390fd5b5b6000600660008473ffffffffffffffffffffffffffffffffffffffff1673ffffffffffffffffffffffffffffffffffffffff16815260200190815260200160002060008060018111156114b3576114b261290f565b5b8660018111156114c6576114c561290f565b5b146114d25760006114d5565b60015b60ff16815260200190815260200160002090506000805b8280549050811080156114fe57508382105b15611b7357600082856115119190612e2f565b9050600084838154811061152857611527612f67565b5b90600052602060002090600602016005015485848154811061154d5761154c612f67565b5b9060005260206000209060060201600301546115699190612e2f565b905060008282111561157d57829050611581565b8190505b808561158d9190612ef1565b9450808685815481106115a3576115a2612f67565b5b906000526020600020906006020160050160008282546115c39190612ef1565b9250508190555060008685815481106115df576115de612f67565b5b906000526020600020906006020160040154826115fc9190612f25565b9050600060018111156116125761161161290f565b5b8a60018111156116255761162461290f565b5b036118d55780600360003373ffffffffffffffffffffffffffffffffffffffff1673ffffffffffffffffffffffffffffffffffffffff16815260200190815260200160002054101561167657600080fd5b81600260003373ffffffffffffffffffffffffffffffffffffffff1673ffffffffffffffffffffffffffffffffffffffff16815260200190815260200160002060008b73ffffffffffffffffffffffffffffffffffffffff1673ffffffffffffffffffffffffffffffffffffffff16815260200190815260200160002060008282546117029190612ef1565b9250508190555080600360003373ffffffffffffffffffffffffffffffffffffffff1673ffffffffffffffffffffffffffffffffffffffff16815260200190815260200160002060008282546117589190612e2f565b92505081905550816002600089888154811061177757611776612f67565b5b906000526020600020906006020160010160009054906101000a900473ffffffffffffffffffffffffffffffffffffffff1673ffffffffffffffffffffffffffffffffffffffff1673ffffffffffffffffffffffffffffffffffffffff16815260200190815260200160002060008b73ffffffffffffffffffffffffffffffffffffffff1673ffffffffffffffffffffffffffffffffffffffff168152602001908152602001600020600082825461182f9190612e2f565b92505081905550806003600089888154811061184e5761184d612f67565b5b906000526020600020906006020160010160009054906101000a900473ffffffffffffffffffffffffffffffffffffffff1673ffffffffffffffffffffffffffffffffffffffff1673ffffffffffffffffffffffffffffffffffffffff16815260200190815260200160002060008282546118c99190612ef1565b92505081905550611b5c565b6001808111156118e8576118e761290f565b5b8a60018111156118fb576118fa61290f565b5b03611b5b5781600260003373ffffffffffffffffffffffffffffffffffffffff1673ffffffffffffffffffffffffffffffffffffffff16815260200190815260200160002060008b73ffffffffffffffffffffffffffffffffffffffff1673ffffffffffffffffffffffffffffffffffffffff168152602001908152602001600020600082825461198c9190612e2f565b9250508190555080600360003373ffffffffffffffffffffffffffffffffffffffff1673ffffffffffffffffffffffffffffffffffffffff16815260200190815260200160002060008282546119e29190612ef1565b925050819055508160026000898881548110611a0157611a00612f67565b5b906000526020600020906006020160010160009054906101000a900473ffffffffffffffffffffffffffffffffffffffff1673ffffffffffffffffffffffffffffffffffffffff1673ffffffffffffffffffffffffffffffffffffffff16815260200190815260200160002060008b73ffffffffffffffffffffffffffffffffffffffff1673ffffffffffffffffffffffffffffffffffffffff1681526020019081526020016000206000828254611ab99190612ef1565b925050819055508060036000898881548110611ad857611ad7612f67565b5b906000526020600020906006020160010160009054906101000a900473ffffffffffffffffffffffffffffffffffffffff1673ffffffffffffffffffffffffffffffffffffffff1673ffffffffffffffffffffffffffffffffffffffff1681526020019081526020016000206000828254611b539190612e2f565b925050819055505b5b505050508080611b6b90612fbf565b9150506114ec565b505b60008280549050118015611bd2575081600081548110611b9857611b97612f67565b5b90600052602060002090600602016003015482600081548110611bbe57611bbd612f67565b5b906000526020600020906006020160050154145b15611e3b5760005b60018380549050611beb9190612e2f565b811015611d895782600182611c009190612ef1565b81548110611c1157611c10612f67565b5b9060005260206000209060060201838281548110611c3257611c31612f67565b5b9060005260206000209060060201600082015481600001556001820160009054906101000a900473ffffffffffffffffffffffffffffffffffffffff168160010160006101000a81548173ffffffffffffffffffffffffffffffffffffffff021916908373ffffffffffffffffffffffffffffffffffffffff1602179055506001820160149054906101000a900460ff168160010160146101000a81548160ff02191690836001811115611ce957611ce861290f565b5b02179055506002820160009054906101000a900473ffffffffffffffffffffffffffffffffffffffff168160020160006101000a81548173ffffffffffffffffffffffffffffffffffffffff021916908373ffffffffffffffffffffffffffffffffffffffff1602179055506003820154816003015560048201548160040155600582015481600501559050508080611d8190612fbf565b915050611bda565b5081805480611d9b57611d9a613073565b5b60019003818190600052602060002090600602016000808201600090556001820160006101000a81549073ffffffffffffffffffffffffffffffffffffffff02191690556001820160146101000a81549060ff02191690556002820160006101000a81549073ffffffffffffffffffffffffffffffffffffffff021916905560038201600090556004820160009055600582016000905550509055611b75565b5050505050565b80600073ffffffffffffffffffffffffffffffffffffffff16600160008373ffffffffffffffffffffffffffffffffffffffff1673ffffffffffffffffffffffffffffffffffffffff16815260200190815260200160002060010160009054906101000a900473ffffffffffffffffffffffffffffffffffffffff1673ffffffffffffffffffffffffffffffffffffffff1603611f14576040517f08c379a0000000000000000000000000000000000000000000000000000000008152600401611f0b90612d74565b60405180910390fd5b82600260003373ffffffffffffffffffffffffffffffffffffffff1673ffffffffffffffffffffffffffffffffffffffff16815260200190815260200160002060008473ffffffffffffffffffffffffffffffffffffffff1673ffffffffffffffffffffffffffffffffffffffff1681526020019081526020016000206000828254611fa09190612ef1565b92505081905550600160008373ffffffffffffffffffffffffffffffffffffffff1673ffffffffffffffffffffffffffffffffffffffff16815260200190815260200160002060010160009054906101000a900473ffffffffffffffffffffffffffffffffffffffff1673ffffffffffffffffffffffffffffffffffffffff166323b872dd3330866040518463ffffffff1660e01b8152600401612046939291906130a2565b6020604051808303816000875af1158015612065573d6000803e3d6000fd5b505050506040513d601f19601f820116820180604052508101906120899190612ec4565b50505050565b612097612559565b6120a160006125d7565b565b6060600660008473ffffffffffffffffffffffffffffffffffffffff1673ffffffffffffffffffffffffffffffffffffffff16815260200190815260200160002060008360018111156120f9576120f861290f565b5b8152602001908152602001600020805480602002602001604051908101604052809291908181526020016000905b8282101561226857838290600052602060002090600602016040518060e0016040529081600082015481526020016001820160009054906101000a900473ffffffffffffffffffffffffffffffffffffffff1673ffffffffffffffffffffffffffffffffffffffff1673ffffffffffffffffffffffffffffffffffffffff1681526020016001820160149054906101000a900460ff1660018111156121cf576121ce61290f565b5b60018111156121e1576121e061290f565b5b81526020016002820160009054906101000a900473ffffffffffffffffffffffffffffffffffffffff1673ffffffffffffffffffffffffffffffffffffffff1673ffffffffffffffffffffffffffffffffffffffff168152602001600382015481526020016004820154815260200160058201548152505081526020019060010190612127565b50505050905092915050565b60008060009054906101000a900473ffffffffffffffffffffffffffffffffffffffff16905090565b6122a5612559565b60405180604001604052808381526020018273ffffffffffffffffffffffffffffffffffffffff16815250600160008373ffffffffffffffffffffffffffffffffffffffff1673ffffffffffffffffffffffffffffffffffffffff1681526020019081526020016000206000820151816000015560208201518160010160006101000a81548173ffffffffffffffffffffffffffffffffffffffff021916908373ffffffffffffffffffffffffffffffffffffffff16021790555090505060048290806001815401808255809150506001900390600052602060002001600090919091909150555050565b600481815481106123a057600080fd5b906000526020600020016000915090505481565b6002602052816000526040600020602052806000526040600020600091509150505481565b60016020528060005260406000206000915090508060000154908060010160009054906101000a900473ffffffffffffffffffffffffffffffffffffffff16905082565b6006602052826000526040600020602052816000526040600020818154811061244557600080fd5b906000526020600020906006020160009250925050508060000154908060010160009054906101000a900473ffffffffffffffffffffffffffffffffffffffff16908060010160149054906101000a900460ff16908060020160009054906101000a900473ffffffffffffffffffffffffffffffffffffffff16908060030154908060040154908060050154905087565b6124de612559565b600073ffffffffffffffffffffffffffffffffffffffff168173ffffffffffffffffffffffffffffffffffffffff160361254d576040517f08c379a00000000000000000000000000000000000000000000000000000000081526004016125449061314b565b60405180910390fd5b612556816125d7565b50565b61256161269b565b73ffffffffffffffffffffffffffffffffffffffff1661257f612274565b73ffffffffffffffffffffffffffffffffffffffff16146125d5576040517f08c379a00000000000000000000000000000000000000000000000000000000081526004016125cc906131b7565b60405180910390fd5b565b60008060009054906101000a900473ffffffffffffffffffffffffffffffffffffffff169050816000806101000a81548173ffffffffffffffffffffffffffffffffffffffff021916908373ffffffffffffffffffffffffffffffffffffffff1602179055508173ffffffffffffffffffffffffffffffffffffffff168173ffffffffffffffffffffffffffffffffffffffff167f8be0079c531659141344cd1fd0a4f28419497f9722a3daafe3b4186f6b6457e060405160405180910390a35050565b600033905090565b600080fd5b6000819050919050565b6126bb816126a8565b81146126c657600080fd5b50565b6000813590506126d8816126b2565b92915050565b600073ffffffffffffffffffffffffffffffffffffffff82169050919050565b6000612709826126de565b9050919050565b612719816126fe565b811461272457600080fd5b50565b60008135905061273681612710565b92915050565b60008060408385031215612753576127526126a3565b5b6000612761858286016126c9565b925050602061277285828601612727565b9150509250929050565b612785816126a8565b82525050565b60006020820190506127a0600083018461277c565b92915050565b600281106127b357600080fd5b50565b6000813590506127c5816127a6565b92915050565b600080600080608085870312156127e5576127e46126a3565b5b60006127f3878288016127b6565b945050602061280487828801612727565b9350506040612815878288016126c9565b9250506060612826878288016126c9565b91505092959194509250565b60008060006060848603121561284b5761284a6126a3565b5b6000612859868287016127b6565b935050602061286a86828701612727565b925050604061287b868287016126c9565b9150509250925092565b6000806040838503121561289c5761289b6126a3565b5b60006128aa85828601612727565b92505060206128bb858286016127b6565b9150509250929050565b600081519050919050565b600082825260208201905092915050565b6000819050602082019050919050565b6128fa816126a8565b82525050565b612909816126fe565b82525050565b7f4e487b7100000000000000000000000000000000000000000000000000000000600052602160045260246000fd5b6002811061294f5761294e61290f565b5b50565b60008190506129608261293e565b919050565b600061297082612952565b9050919050565b61298081612965565b82525050565b60e08201600082015161299c60008501826128f1565b5060208201516129af6020850182612900565b5060408201516129c26040850182612977565b5060608201516129d56060850182612900565b5060808201516129e860808501826128f1565b5060a08201516129fb60a08501826128f1565b5060c0820151612a0e60c08501826128f1565b50505050565b6000612a208383612986565b60e08301905092915050565b6000602082019050919050565b6000612a44826128c5565b612a4e81856128d0565b9350612a59836128e1565b8060005b83811015612a8a578151612a718882612a14565b9750612a7c83612a2c565b925050600181019050612a5d565b5085935050505092915050565b60006020820190508181036000830152612ab18184612a39565b905092915050565b612ac2816126fe565b82525050565b6000602082019050612add6000830184612ab9565b92915050565b6000819050919050565b612af681612ae3565b8114612b0157600080fd5b50565b600081359050612b1381612aed565b92915050565b60008060408385031215612b3057612b2f6126a3565b5b6000612b3e85828601612b04565b9250506020612b4f85828601612727565b9150509250929050565b600060208284031215612b6f57612b6e6126a3565b5b6000612b7d848285016126c9565b91505092915050565b612b8f81612ae3565b82525050565b6000602082019050612baa6000830184612b86565b92915050565b60008060408385031215612bc757612bc66126a3565b5b6000612bd585828601612727565b9250506020612be685828601612727565b9150509250929050565b600060208284031215612c0657612c056126a3565b5b6000612c1484828501612727565b91505092915050565b6000604082019050612c326000830185612b86565b612c3f6020830184612ab9565b9392505050565b600080600060608486031215612c5f57612c5e6126a3565b5b6000612c6d86828701612727565b9350506020612c7e868287016126c9565b9250506040612c8f868287016126c9565b9150509250925092565b612ca281612965565b82525050565b600060e082019050612cbd600083018a61277c565b612cca6020830189612ab9565b612cd76040830188612c99565b612ce46060830187612ab9565b612cf1608083018661277c565b612cfe60a083018561277c565b612d0b60c083018461277c565b98975050505050505050565b600082825260208201905092915050565b7f746f6b656e7320646f6573206e6f742065786973740000000000000000000000600082015250565b6000612d5e601583612d17565b9150612d6982612d28565b602082019050919050565b60006020820190508181036000830152612d8d81612d51565b9050919050565b7f42616c616e6365206e6f742073756666696369656e7400000000000000000000600082015250565b6000612dca601683612d17565b9150612dd582612d94565b602082019050919050565b60006020820190508181036000830152612df981612dbd565b9050919050565b7f4e487b7100000000000000000000000000000000000000000000000000000000600052601160045260246000fd5b6000612e3a826126a8565b9150612e45836126a8565b9250828203905081811115612e5d57612e5c612e00565b5b92915050565b6000604082019050612e786000830185612ab9565b612e85602083018461277c565b9392505050565b60008115159050919050565b612ea181612e8c565b8114612eac57600080fd5b50565b600081519050612ebe81612e98565b92915050565b600060208284031215612eda57612ed96126a3565b5b6000612ee884828501612eaf565b91505092915050565b6000612efc826126a8565b9150612f07836126a8565b9250828201905080821115612f1f57612f1e612e00565b5b92915050565b6000612f30826126a8565b9150612f3b836126a8565b9250828202612f49816126a8565b91508282048414831517612f6057612f5f612e00565b5b5092915050565b7f4e487b7100000000000000000000000000000000000000000000000000000000600052603260045260246000fd5b6000612fa1826126a8565b915060008203612fb457612fb3612e00565b5b600182039050919050565b6000612fca826126a8565b91507fffffffffffffffffffffffffffffffffffffffffffffffffffffffffffffffff8203612ffc57612ffb612e00565b5b600182019050919050565b7f696e73756666696369656e742062616c616e6365000000000000000000000000600082015250565b600061303d601483612d17565b915061304882613007565b602082019050919050565b6000602082019050818103600083015261306c81613030565b9050919050565b7f4e487b7100000000000000000000000000000000000000000000000000000000600052603160045260246000fd5b60006060820190506130b76000830186612ab9565b6130c46020830185612ab9565b6130d1604083018461277c565b949350505050565b7f4f776e61626c653a206e6577206f776e657220697320746865207a65726f206160008201527f6464726573730000000000000000000000000000000000000000000000000000602082015250565b6000613135602683612d17565b9150613140826130d9565b604082019050919050565b6000602082019050818103600083015261316481613128565b9050919050565b7f4f776e61626c653a2063616c6c6572206973206e6f7420746865206f776e6572600082015250565b60006131a1602083612d17565b91506131ac8261316b565b602082019050919050565b600060208201905081810360008301526131d081613194565b905091905056fea2646970667358221220016fb93747497417422c79858008d5deeaa62ff78f0767d4ceade74e12a874dd64736f6c63430008120033",
  "immutableReferences": {},
  "source": "// SPDX-License-Identifier: UNLICENSED\npragma solidity ^0.8.0;\npragma experimental ABIEncoderV2;\n\nimport \"./Wallet.sol\";\n\ncontract Dex is Wallet {\n    enum Position {\n        Buy, // 0\n        Sell // 1\n    }\n\n    struct Order {\n        uint id;\n        address trader;\n        Position position;\n        address tokenAddress;\n        uint amount;\n        uint price;\n        uint filled;\n    }\n\n    uint public orderId;\n\n    mapping(address => mapping(uint => Order[])) public orderBook;\n\n    function getOrderBook(\n        address tokenAddress,\n        Position position\n    ) public view returns (Order[] memory) {\n        return orderBook[tokenAddress][uint(position)];\n    }\n\n    function createLimitOrder(\n        Position position,\n        address tokenAddress,\n        uint amount,\n        uint price\n    ) public {\n        if (position == Position.Buy)\n            require(ethBlance[msg.sender] >= amount * price);\n        else if (position == Position.Sell)\n            require(balances[msg.sender][tokenAddress] >= amount);\n\n        Order[] storage orders = orderBook[tokenAddress][uint(position)];\n        orders.push(\n            Order(orderId, msg.sender, position, tokenAddress, amount, price, 0)\n        );\n\n        // Bubble sort\n        if (position == Position.Buy) {\n            for (uint i = orders.length - 1; i > 0; i--) {\n                if (orders[i - 1].price > orders[i].price) break;\n\n                Order memory _orders = orders[i - 1];\n                orders[i - 1] = orders[i];\n                orders[i] = _orders;\n            }\n        } else if (position == Position.Sell) {\n            for (uint i = orders.length - 1; i > 0; i--) {\n                if (orders[i - 1].price < orders[i].price) break;\n\n                Order memory _orders = orders[i - 1];\n                orders[i - 1] = orders[i];\n                orders[i] = _orders;\n            }\n        }\n\n        orderId++;\n    }\n\n    function createMarketOrder(\n        Position position,\n        address tokenAddress,\n        uint amount\n    ) public {\n        if (position == Position.Sell)\n            require(\n                balances[msg.sender][tokenAddress] >= amount,\n                \"insufficient balance\"\n            );\n\n        Order[] storage orders = orderBook[tokenAddress][\n            position == Position.Buy ? 1 : 0\n        ];\n\n        uint totalFilled = 0;\n\n        for (uint i = 0; i < orders.length && totalFilled < amount; i++) {\n            uint toFill = amount - totalFilled;\n            uint availableToFill = orders[i].amount - orders[i].filled;\n            uint filled = 0;\n\n            if (availableToFill > toFill) filled = toFill;\n            else filled = availableToFill;\n\n            totalFilled += filled;\n            orders[i].filled += filled;\n            uint cost = filled * orders[i].price;\n\n            if (position == Position.Buy) {\n                // if msg.sender is the seller\n                require(ethBlance[msg.sender] >= cost);\n\n                balances[msg.sender][tokenAddress] += filled;\n                ethBlance[msg.sender] -= cost;\n\n                balances[orders[i].trader][tokenAddress] -= filled;\n                ethBlance[orders[i].trader] += cost;\n            } else if (position == Position.Sell) {\n                // if msg.sender is the buyer\n                balances[msg.sender][tokenAddress] -= filled;\n                ethBlance[msg.sender] += cost;\n\n                balances[orders[i].trader][tokenAddress] += filled;\n                ethBlance[orders[i].trader] -= cost;\n            }\n        }\n\n        while (orders.length > 0 && orders[0].filled == orders[0].amount) {\n            for (uint i = 0; i < orders.length - 1; i++) {\n                orders[i] = orders[i + 1];\n            }\n            orders.pop();\n        }\n    }\n}\n",
  "sourcePath": "/Users/nemi/Projects/dex_emerys_v2/contracts/Dex.sol",
  "compiler": {
    "name": "solc",
    "version": "0.8.18+commit.87f61d96.Emscripten.clang"
  },
  "schemaVersion": "3.4.11",
  "updatedAt": "2023-02-20T01:36:05.647Z",
  "devdoc": {
    "kind": "dev",
    "methods": {
      "owner()": {
        "details": "Returns the address of the current owner."
      },
      "renounceOwnership()": {
        "details": "Leaves the contract without owner. It will not be possible to call `onlyOwner` functions anymore. Can only be called by the current owner. NOTE: Renouncing ownership will leave the contract without an owner, thereby removing any functionality that is only available to the owner."
      },
      "transferOwnership(address)": {
        "details": "Transfers ownership of the contract to a new account (`newOwner`). Can only be called by the current owner."
      }
    },
    "version": 1
  },
  "userdoc": {
    "kind": "user",
    "methods": {},
    "version": 1
  }
}