{
  "contractName": "Wallet",
  "abi": [
    {
      "anonymous": false,
      "inputs": [
        {
          "indexed": true,
          "internalType": "address",
          "name": "previousOwner",
          "type": "address"
        },
        {
          "indexed": true,
          "internalType": "address",
          "name": "newOwner",
          "type": "address"
        }
      ],
      "name": "OwnershipTransferred",
      "type": "event"
    },
    {
      "inputs": [
        {
          "internalType": "address",
          "name": "",
          "type": "address"
        },
        {
          "internalType": "address",
          "name": "",
          "type": "address"
        }
      ],
      "name": "balances",
      "outputs": [
        {
          "internalType": "uint256",
          "name": "",
          "type": "uint256"
        }
      ],
      "stateMutability": "view",
      "type": "function"
    },
    {
      "inputs": [],
      "name": "owner",
      "outputs": [
        {
          "internalType": "address",
          "name": "",
          "type": "address"
        }
      ],
      "stateMutability": "view",
      "type": "function"
    },
    {
      "inputs": [],
      "name": "renounceOwnership",
      "outputs": [],
      "stateMutability": "nonpayable",
      "type": "function"
    },
    {
      "inputs": [
        {
          "internalType": "uint256",
          "name": "",
          "type": "uint256"
        }
      ],
      "name": "tokenList",
      "outputs": [
        {
          "internalType": "bytes32",
          "name": "",
          "type": "bytes32"
        }
      ],
      "stateMutability": "view",
      "type": "function"
    },
    {
      "inputs": [
        {
          "internalType": "address",
          "name": "",
          "type": "address"
        }
      ],
      "name": "tokens",
      "outputs": [
        {
          "internalType": "bytes32",
          "name": "symbol",
          "type": "bytes32"
        },
        {
          "internalType": "address",
          "name": "tokenAddress",
          "type": "address"
        }
      ],
      "stateMutability": "view",
      "type": "function"
    },
    {
      "inputs": [
        {
          "internalType": "address",
          "name": "newOwner",
          "type": "address"
        }
      ],
      "name": "transferOwnership",
      "outputs": [],
      "stateMutability": "nonpayable",
      "type": "function"
    },
    {
      "inputs": [
        {
          "internalType": "bytes32",
          "name": "symbol",
          "type": "bytes32"
        },
        {
          "internalType": "address",
          "name": "tokenAddress",
          "type": "address"
        }
      ],
      "name": "addToken",
      "outputs": [],
      "stateMutability": "nonpayable",
      "type": "function"
    },
    {
      "inputs": [
        {
          "internalType": "uint256",
          "name": "amount",
          "type": "uint256"
        },
        {
          "internalType": "address",
          "name": "tokenAddress",
          "type": "address"
        }
      ],
      "name": "deposit",
      "outputs": [],
      "stateMutability": "nonpayable",
      "type": "function"
    },
    {
      "inputs": [
        {
          "internalType": "uint256",
          "name": "amount",
          "type": "uint256"
        },
        {
          "internalType": "address",
          "name": "tokenAddress",
          "type": "address"
        }
      ],
      "name": "withdraw",
      "outputs": [],
      "stateMutability": "nonpayable",
      "type": "function"
    },
    {
      "inputs": [],
      "name": "depositEth",
      "outputs": [],
      "stateMutability": "payable",
      "type": "function"
    }
  ],
  "bytecode": "0x608060405234801561001057600080fd5b5061002d61002261003260201b60201c565b61003a60201b60201c565b6100fe565b600033905090565b60008060009054906101000a900473ffffffffffffffffffffffffffffffffffffffff169050816000806101000a81548173ffffffffffffffffffffffffffffffffffffffff021916908373ffffffffffffffffffffffffffffffffffffffff1602179055508173ffffffffffffffffffffffffffffffffffffffff168173ffffffffffffffffffffffffffffffffffffffff167f8be0079c531659141344cd1fd0a4f28419497f9722a3daafe3b4186f6b6457e060405160405180910390a35050565b61117f8061010d6000396000f3fe6080604052600436106100905760003560e01c80639776aacf116100595780639776aacf146101335780639ead72221461015c578063c23f001f14610199578063e4860339146101d6578063f2fde38b1461021457610090565b8062f714ce14610095578063439370b1146100be5780636e553f65146100c8578063715018a6146100f15780638da5cb5b14610108575b600080fd5b3480156100a157600080fd5b506100bc60048036038101906100b79190610c0f565b61023d565b005b6100c6610547565b005b3480156100d457600080fd5b506100ef60048036038101906100ea9190610c0f565b61059f565b005b3480156100fd57600080fd5b506101066107ec565b005b34801561011457600080fd5b5061011d610800565b60405161012a9190610c5e565b60405180910390f35b34801561013f57600080fd5b5061015a60048036038101906101559190610caf565b610829565b005b34801561016857600080fd5b50610183600480360381019061017e9190610cef565b61091c565b6040516101909190610d2b565b60405180910390f35b3480156101a557600080fd5b506101c060048036038101906101bb9190610d46565b610940565b6040516101cd9190610d95565b60405180910390f35b3480156101e257600080fd5b506101fd60048036038101906101f89190610db0565b610965565b60405161020b929190610ddd565b60405180910390f35b34801561022057600080fd5b5061023b60048036038101906102369190610db0565b6109a9565b005b80600073ffffffffffffffffffffffffffffffffffffffff16600160008373ffffffffffffffffffffffffffffffffffffffff1673ffffffffffffffffffffffffffffffffffffffff16815260200190815260200160002060010160009054906101000a900473ffffffffffffffffffffffffffffffffffffffff1673ffffffffffffffffffffffffffffffffffffffff160361030f576040517f08c379a000000000000000000000000000000000000000000000000000000000815260040161030690610e63565b60405180910390fd5b82600260003373ffffffffffffffffffffffffffffffffffffffff1673ffffffffffffffffffffffffffffffffffffffff16815260200190815260200160002060008473ffffffffffffffffffffffffffffffffffffffff1673ffffffffffffffffffffffffffffffffffffffff1681526020019081526020016000205410156103ce576040517f08c379a00000000000000000000000000000000000000000000000000000000081526004016103c590610ecf565b60405180910390fd5b82600260003373ffffffffffffffffffffffffffffffffffffffff1673ffffffffffffffffffffffffffffffffffffffff16815260200190815260200160002060008473ffffffffffffffffffffffffffffffffffffffff1673ffffffffffffffffffffffffffffffffffffffff168152602001908152602001600020600082825461045a9190610f1e565b92505081905550600160008373ffffffffffffffffffffffffffffffffffffffff1673ffffffffffffffffffffffffffffffffffffffff16815260200190815260200160002060010160009054906101000a900473ffffffffffffffffffffffffffffffffffffffff1673ffffffffffffffffffffffffffffffffffffffff1663a9059cbb33856040518363ffffffff1660e01b81526004016104fe929190610f52565b6020604051808303816000875af115801561051d573d6000803e3d6000fd5b505050506040513d601f19601f820116820180604052508101906105419190610fb3565b50505050565b34600360003373ffffffffffffffffffffffffffffffffffffffff1673ffffffffffffffffffffffffffffffffffffffff16815260200190815260200160002060008282546105969190610fe0565b92505081905550565b80600073ffffffffffffffffffffffffffffffffffffffff16600160008373ffffffffffffffffffffffffffffffffffffffff1673ffffffffffffffffffffffffffffffffffffffff16815260200190815260200160002060010160009054906101000a900473ffffffffffffffffffffffffffffffffffffffff1673ffffffffffffffffffffffffffffffffffffffff1603610671576040517f08c379a000000000000000000000000000000000000000000000000000000000815260040161066890610e63565b60405180910390fd5b82600260003373ffffffffffffffffffffffffffffffffffffffff1673ffffffffffffffffffffffffffffffffffffffff16815260200190815260200160002060008473ffffffffffffffffffffffffffffffffffffffff1673ffffffffffffffffffffffffffffffffffffffff16815260200190815260200160002060008282546106fd9190610fe0565b92505081905550600160008373ffffffffffffffffffffffffffffffffffffffff1673ffffffffffffffffffffffffffffffffffffffff16815260200190815260200160002060010160009054906101000a900473ffffffffffffffffffffffffffffffffffffffff1673ffffffffffffffffffffffffffffffffffffffff166323b872dd3330866040518463ffffffff1660e01b81526004016107a393929190611014565b6020604051808303816000875af11580156107c2573d6000803e3d6000fd5b505050506040513d601f19601f820116820180604052508101906107e69190610fb3565b50505050565b6107f4610a2c565b6107fe6000610aaa565b565b60008060009054906101000a900473ffffffffffffffffffffffffffffffffffffffff16905090565b610831610a2c565b60405180604001604052808381526020018273ffffffffffffffffffffffffffffffffffffffff16815250600160008373ffffffffffffffffffffffffffffffffffffffff1673ffffffffffffffffffffffffffffffffffffffff1681526020019081526020016000206000820151816000015560208201518160010160006101000a81548173ffffffffffffffffffffffffffffffffffffffff021916908373ffffffffffffffffffffffffffffffffffffffff16021790555090505060048290806001815401808255809150506001900390600052602060002001600090919091909150555050565b6004818154811061092c57600080fd5b906000526020600020016000915090505481565b6002602052816000526040600020602052806000526040600020600091509150505481565b60016020528060005260406000206000915090508060000154908060010160009054906101000a900473ffffffffffffffffffffffffffffffffffffffff16905082565b6109b1610a2c565b600073ffffffffffffffffffffffffffffffffffffffff168173ffffffffffffffffffffffffffffffffffffffff1603610a20576040517f08c379a0000000000000000000000000000000000000000000000000000000008152600401610a17906110bd565b60405180910390fd5b610a2981610aaa565b50565b610a34610b6e565b73ffffffffffffffffffffffffffffffffffffffff16610a52610800565b73ffffffffffffffffffffffffffffffffffffffff1614610aa8576040517f08c379a0000000000000000000000000000000000000000000000000000000008152600401610a9f90611129565b60405180910390fd5b565b60008060009054906101000a900473ffffffffffffffffffffffffffffffffffffffff169050816000806101000a81548173ffffffffffffffffffffffffffffffffffffffff021916908373ffffffffffffffffffffffffffffffffffffffff1602179055508173ffffffffffffffffffffffffffffffffffffffff168173ffffffffffffffffffffffffffffffffffffffff167f8be0079c531659141344cd1fd0a4f28419497f9722a3daafe3b4186f6b6457e060405160405180910390a35050565b600033905090565b600080fd5b6000819050919050565b610b8e81610b7b565b8114610b9957600080fd5b50565b600081359050610bab81610b85565b92915050565b600073ffffffffffffffffffffffffffffffffffffffff82169050919050565b6000610bdc82610bb1565b9050919050565b610bec81610bd1565b8114610bf757600080fd5b50565b600081359050610c0981610be3565b92915050565b60008060408385031215610c2657610c25610b76565b5b6000610c3485828601610b9c565b9250506020610c4585828601610bfa565b9150509250929050565b610c5881610bd1565b82525050565b6000602082019050610c736000830184610c4f565b92915050565b6000819050919050565b610c8c81610c79565b8114610c9757600080fd5b50565b600081359050610ca981610c83565b92915050565b60008060408385031215610cc657610cc5610b76565b5b6000610cd485828601610c9a565b9250506020610ce585828601610bfa565b9150509250929050565b600060208284031215610d0557610d04610b76565b5b6000610d1384828501610b9c565b91505092915050565b610d2581610c79565b82525050565b6000602082019050610d406000830184610d1c565b92915050565b60008060408385031215610d5d57610d5c610b76565b5b6000610d6b85828601610bfa565b9250506020610d7c85828601610bfa565b9150509250929050565b610d8f81610b7b565b82525050565b6000602082019050610daa6000830184610d86565b92915050565b600060208284031215610dc657610dc5610b76565b5b6000610dd484828501610bfa565b91505092915050565b6000604082019050610df26000830185610d1c565b610dff6020830184610c4f565b9392505050565b600082825260208201905092915050565b7f746f6b656e7320646f6573206e6f742065786973740000000000000000000000600082015250565b6000610e4d601583610e06565b9150610e5882610e17565b602082019050919050565b60006020820190508181036000830152610e7c81610e40565b9050919050565b7f42616c616e6365206e6f742073756666696369656e7400000000000000000000600082015250565b6000610eb9601683610e06565b9150610ec482610e83565b602082019050919050565b60006020820190508181036000830152610ee881610eac565b9050919050565b7f4e487b7100000000000000000000000000000000000000000000000000000000600052601160045260246000fd5b6000610f2982610b7b565b9150610f3483610b7b565b9250828203905081811115610f4c57610f4b610eef565b5b92915050565b6000604082019050610f676000830185610c4f565b610f746020830184610d86565b9392505050565b60008115159050919050565b610f9081610f7b565b8114610f9b57600080fd5b50565b600081519050610fad81610f87565b92915050565b600060208284031215610fc957610fc8610b76565b5b6000610fd784828501610f9e565b91505092915050565b6000610feb82610b7b565b9150610ff683610b7b565b925082820190508082111561100e5761100d610eef565b5b92915050565b60006060820190506110296000830186610c4f565b6110366020830185610c4f565b6110436040830184610d86565b949350505050565b7f4f776e61626c653a206e6577206f776e657220697320746865207a65726f206160008201527f6464726573730000000000000000000000000000000000000000000000000000602082015250565b60006110a7602683610e06565b91506110b28261104b565b604082019050919050565b600060208201905081810360008301526110d68161109a565b9050919050565b7f4f776e61626c653a2063616c6c6572206973206e6f7420746865206f776e6572600082015250565b6000611113602083610e06565b915061111e826110dd565b602082019050919050565b6000602082019050818103600083015261114281611106565b905091905056fea26469706673582212207c8e48a970e527a06db47a6935e9ad1b2f1f1733b7901a90db2b57da22f51e9464736f6c63430008120033",
  "immutableReferences": {},
  "source": "// SPDX-License-Identifier: SEE LICENSE IN LICENSE\npragma solidity ^0.8.0;\n\nimport \"../node_modules/@openzeppelin/contracts/token/ERC20/IERC20.sol\";\nimport \"../node_modules/@openzeppelin/contracts/access/Ownable.sol\";\n\ncontract Wallet is Ownable {\n    struct Token {\n        bytes32 symbol;\n        address tokenAddress;\n    }\n\n    mapping(address => Token) public tokens;\n    mapping(address => mapping(address => uint256)) public balances;\n    mapping(address => uint) ethBlance;\n\n    bytes32[] public tokenList;\n\n    modifier tokenExist(address tokenAddress) {\n        require(\n            tokens[tokenAddress].tokenAddress != address(0),\n            \"tokens does not exist\"\n        );\n        _;\n    }\n\n    function addToken(bytes32 symbol, address tokenAddress) external onlyOwner {\n        tokens[tokenAddress] = Token(symbol, tokenAddress);\n        tokenList.push(symbol);\n    }\n\n    function deposit(\n        uint amount,\n        address tokenAddress\n    ) external tokenExist(tokenAddress) {\n        balances[msg.sender][tokenAddress] += amount;\n        IERC20(tokens[tokenAddress].tokenAddress).transferFrom(\n            msg.sender,\n            address(this),\n            amount\n        );\n    }\n\n    function withdraw(\n        uint amount,\n        address tokenAddress\n    ) external tokenExist(tokenAddress) {\n        require(\n            balances[msg.sender][tokenAddress] >= amount,\n            \"Balance not sufficient\"\n        );\n\n        balances[msg.sender][tokenAddress] -= amount;\n        IERC20(tokens[tokenAddress].tokenAddress).transfer(msg.sender, amount);\n    }\n\n    function depositEth() external payable {\n        ethBlance[msg.sender] += msg.value;\n    }\n}\n",
  "sourcePath": "/Users/nemi/Projects/dex_emerys_v2/contracts/Wallet.sol",
  "compiler": {
    "name": "solc",
    "version": "0.8.18+commit.87f61d96.Emscripten.clang"
  },
  "schemaVersion": "3.4.11",
  "updatedAt": "2023-02-20T01:36:05.657Z",
  "devdoc": {
    "kind": "dev",
    "methods": {
      "owner()": {
        "details": "Returns the address of the current owner."
      },
      "renounceOwnership()": {
        "details": "Leaves the contract without owner. It will not be possible to call `onlyOwner` functions anymore. Can only be called by the current owner. NOTE: Renouncing ownership will leave the contract without an owner, thereby removing any functionality that is only available to the owner."
      },
      "transferOwnership(address)": {
        "details": "Transfers ownership of the contract to a new account (`newOwner`). Can only be called by the current owner."
      }
    },
    "version": 1
  },
  "userdoc": {
    "kind": "user",
    "methods": {},
    "version": 1
  }
}