{
  "contractName": "Wallet",
  "abi": [
    {
      "anonymous": false,
      "inputs": [
        {
          "indexed": true,
          "internalType": "address",
          "name": "previousOwner",
          "type": "address"
        },
        {
          "indexed": true,
          "internalType": "address",
          "name": "newOwner",
          "type": "address"
        }
      ],
      "name": "OwnershipTransferred",
      "type": "event"
    },
    {
      "inputs": [
        {
          "internalType": "address",
          "name": "",
          "type": "address"
        },
        {
          "internalType": "bytes32",
          "name": "",
          "type": "bytes32"
        }
      ],
      "name": "balances",
      "outputs": [
        {
          "internalType": "uint256",
          "name": "",
          "type": "uint256"
        }
      ],
      "stateMutability": "view",
      "type": "function",
      "constant": true
    },
    {
      "inputs": [],
      "name": "owner",
      "outputs": [
        {
          "internalType": "address",
          "name": "",
          "type": "address"
        }
      ],
      "stateMutability": "view",
      "type": "function",
      "constant": true
    },
    {
      "inputs": [],
      "name": "renounceOwnership",
      "outputs": [],
      "stateMutability": "nonpayable",
      "type": "function"
    },
    {
      "inputs": [
        {
          "internalType": "uint256",
          "name": "",
          "type": "uint256"
        }
      ],
      "name": "tokenList",
      "outputs": [
        {
          "internalType": "bytes32",
          "name": "",
          "type": "bytes32"
        }
      ],
      "stateMutability": "view",
      "type": "function",
      "constant": true
    },
    {
      "inputs": [
        {
          "internalType": "bytes32",
          "name": "",
          "type": "bytes32"
        }
      ],
      "name": "tokens",
      "outputs": [
        {
          "internalType": "bytes32",
          "name": "symbol",
          "type": "bytes32"
        },
        {
          "internalType": "address",
          "name": "tokenAddress",
          "type": "address"
        }
      ],
      "stateMutability": "view",
      "type": "function",
      "constant": true
    },
    {
      "inputs": [
        {
          "internalType": "address",
          "name": "newOwner",
          "type": "address"
        }
      ],
      "name": "transferOwnership",
      "outputs": [],
      "stateMutability": "nonpayable",
      "type": "function"
    },
    {
      "inputs": [
        {
          "internalType": "bytes32",
          "name": "symbol",
          "type": "bytes32"
        },
        {
          "internalType": "address",
          "name": "tokenAddress",
          "type": "address"
        }
      ],
      "name": "addToken",
      "outputs": [],
      "stateMutability": "nonpayable",
      "type": "function"
    },
    {
      "inputs": [
        {
          "internalType": "uint256",
          "name": "amount",
          "type": "uint256"
        },
        {
          "internalType": "bytes32",
          "name": "symbol",
          "type": "bytes32"
        }
      ],
      "name": "deposit",
      "outputs": [],
      "stateMutability": "nonpayable",
      "type": "function"
    },
    {
      "inputs": [
        {
          "internalType": "uint256",
          "name": "amount",
          "type": "uint256"
        },
        {
          "internalType": "bytes32",
          "name": "symbol",
          "type": "bytes32"
        }
      ],
      "name": "withdraw",
      "outputs": [],
      "stateMutability": "nonpayable",
      "type": "function"
    }
  ],
  "bytecode": "0x608060405234801561001057600080fd5b5061002d61002261003260201b60201c565b61003a60201b60201c565b6100fe565b600033905090565b60008060009054906101000a900473ffffffffffffffffffffffffffffffffffffffff169050816000806101000a81548173ffffffffffffffffffffffffffffffffffffffff021916908373ffffffffffffffffffffffffffffffffffffffff1602179055508173ffffffffffffffffffffffffffffffffffffffff168173ffffffffffffffffffffffffffffffffffffffff167f8be0079c531659141344cd1fd0a4f28419497f9722a3daafe3b4186f6b6457e060405160405180910390a35050565b610f788061010d6000396000f3fe608060405234801561001057600080fd5b50600436106100935760003560e01c80639776aacf116100665780639776aacf146101215780639ead72221461013d578063a8d2021a1461016d578063c9630cb014610189578063f2fde38b146101a557610093565b80631f14df6914610098578063715018a6146100c85780638da5cb5b146100d2578063904194a3146100f0575b600080fd5b6100b260048036038101906100ad91906109db565b6101c1565b6040516100bf9190610a34565b60405180910390f35b6100d06101e6565b005b6100da6101fa565b6040516100e79190610a5e565b60405180910390f35b61010a60048036038101906101059190610a79565b610223565b604051610118929190610ab5565b60405180910390f35b61013b60048036038101906101369190610ade565b610267565b005b61015760048036038101906101529190610b4a565b61032e565b6040516101649190610b77565b60405180910390f35b61018760048036038101906101829190610b92565b610352565b005b6101a3600480360381019061019e9190610b92565b6105ac565b005b6101bf60048036038101906101ba9190610bd2565b610775565b005b6003602052816000526040600020602052806000526040600020600091509150505481565b6101ee6107f8565b6101f86000610876565b565b60008060009054906101000a900473ffffffffffffffffffffffffffffffffffffffff16905090565b60016020528060005260406000206000915090508060000154908060010160009054906101000a900473ffffffffffffffffffffffffffffffffffffffff16905082565b61026f6107f8565b60405180604001604052808381526020018273ffffffffffffffffffffffffffffffffffffffff16815250600160008481526020019081526020016000206000820151816000015560208201518160010160006101000a81548173ffffffffffffffffffffffffffffffffffffffff021916908373ffffffffffffffffffffffffffffffffffffffff16021790555090505060028290806001815401808255809150506001900390600052602060002001600090919091909150555050565b6002818154811061033e57600080fd5b906000526020600020016000915090505481565b80600073ffffffffffffffffffffffffffffffffffffffff166001600083815260200190815260200160002060010160009054906101000a900473ffffffffffffffffffffffffffffffffffffffff1673ffffffffffffffffffffffffffffffffffffffff16036103f8576040517f08c379a00000000000000000000000000000000000000000000000000000000081526004016103ef90610c5c565b60405180910390fd5b82600360003373ffffffffffffffffffffffffffffffffffffffff1673ffffffffffffffffffffffffffffffffffffffff168152602001908152602001600020600084815260200190815260200160002054101561048b576040517f08c379a000000000000000000000000000000000000000000000000000000000815260040161048290610cc8565b60405180910390fd5b82600360003373ffffffffffffffffffffffffffffffffffffffff1673ffffffffffffffffffffffffffffffffffffffff168152602001908152602001600020600084815260200190815260200160002060008282546104eb9190610d17565b925050819055506001600083815260200190815260200160002060010160009054906101000a900473ffffffffffffffffffffffffffffffffffffffff1673ffffffffffffffffffffffffffffffffffffffff1663a9059cbb33856040518363ffffffff1660e01b8152600401610563929190610d4b565b6020604051808303816000875af1158015610582573d6000803e3d6000fd5b505050506040513d601f19601f820116820180604052508101906105a69190610dac565b50505050565b80600073ffffffffffffffffffffffffffffffffffffffff166001600083815260200190815260200160002060010160009054906101000a900473ffffffffffffffffffffffffffffffffffffffff1673ffffffffffffffffffffffffffffffffffffffff1603610652576040517f08c379a000000000000000000000000000000000000000000000000000000000815260040161064990610c5c565b60405180910390fd5b82600360003373ffffffffffffffffffffffffffffffffffffffff1673ffffffffffffffffffffffffffffffffffffffff168152602001908152602001600020600084815260200190815260200160002060008282546106b29190610dd9565b925050819055506001600083815260200190815260200160002060010160009054906101000a900473ffffffffffffffffffffffffffffffffffffffff1673ffffffffffffffffffffffffffffffffffffffff166323b872dd3330866040518463ffffffff1660e01b815260040161072c93929190610e0d565b6020604051808303816000875af115801561074b573d6000803e3d6000fd5b505050506040513d601f19601f8201168201806040525081019061076f9190610dac565b50505050565b61077d6107f8565b600073ffffffffffffffffffffffffffffffffffffffff168173ffffffffffffffffffffffffffffffffffffffff16036107ec576040517f08c379a00000000000000000000000000000000000000000000000000000000081526004016107e390610eb6565b60405180910390fd5b6107f581610876565b50565b61080061093a565b73ffffffffffffffffffffffffffffffffffffffff1661081e6101fa565b73ffffffffffffffffffffffffffffffffffffffff1614610874576040517f08c379a000000000000000000000000000000000000000000000000000000000815260040161086b90610f22565b60405180910390fd5b565b60008060009054906101000a900473ffffffffffffffffffffffffffffffffffffffff169050816000806101000a81548173ffffffffffffffffffffffffffffffffffffffff021916908373ffffffffffffffffffffffffffffffffffffffff1602179055508173ffffffffffffffffffffffffffffffffffffffff168173ffffffffffffffffffffffffffffffffffffffff167f8be0079c531659141344cd1fd0a4f28419497f9722a3daafe3b4186f6b6457e060405160405180910390a35050565b600033905090565b600080fd5b600073ffffffffffffffffffffffffffffffffffffffff82169050919050565b600061097282610947565b9050919050565b61098281610967565b811461098d57600080fd5b50565b60008135905061099f81610979565b92915050565b6000819050919050565b6109b8816109a5565b81146109c357600080fd5b50565b6000813590506109d5816109af565b92915050565b600080604083850312156109f2576109f1610942565b5b6000610a0085828601610990565b9250506020610a11858286016109c6565b9150509250929050565b6000819050919050565b610a2e81610a1b565b82525050565b6000602082019050610a496000830184610a25565b92915050565b610a5881610967565b82525050565b6000602082019050610a736000830184610a4f565b92915050565b600060208284031215610a8f57610a8e610942565b5b6000610a9d848285016109c6565b91505092915050565b610aaf816109a5565b82525050565b6000604082019050610aca6000830185610aa6565b610ad76020830184610a4f565b9392505050565b60008060408385031215610af557610af4610942565b5b6000610b03858286016109c6565b9250506020610b1485828601610990565b9150509250929050565b610b2781610a1b565b8114610b3257600080fd5b50565b600081359050610b4481610b1e565b92915050565b600060208284031215610b6057610b5f610942565b5b6000610b6e84828501610b35565b91505092915050565b6000602082019050610b8c6000830184610aa6565b92915050565b60008060408385031215610ba957610ba8610942565b5b6000610bb785828601610b35565b9250506020610bc8858286016109c6565b9150509250929050565b600060208284031215610be857610be7610942565b5b6000610bf684828501610990565b91505092915050565b600082825260208201905092915050565b7f746f6b656e7320646f6573206e6f742065786973740000000000000000000000600082015250565b6000610c46601583610bff565b9150610c5182610c10565b602082019050919050565b60006020820190508181036000830152610c7581610c39565b9050919050565b7f42616c616e6365206e6f742073756666696369656e7400000000000000000000600082015250565b6000610cb2601683610bff565b9150610cbd82610c7c565b602082019050919050565b60006020820190508181036000830152610ce181610ca5565b9050919050565b7f4e487b7100000000000000000000000000000000000000000000000000000000600052601160045260246000fd5b6000610d2282610a1b565b9150610d2d83610a1b565b9250828203905081811115610d4557610d44610ce8565b5b92915050565b6000604082019050610d606000830185610a4f565b610d6d6020830184610a25565b9392505050565b60008115159050919050565b610d8981610d74565b8114610d9457600080fd5b50565b600081519050610da681610d80565b92915050565b600060208284031215610dc257610dc1610942565b5b6000610dd084828501610d97565b91505092915050565b6000610de482610a1b565b9150610def83610a1b565b9250828201905080821115610e0757610e06610ce8565b5b92915050565b6000606082019050610e226000830186610a4f565b610e2f6020830185610a4f565b610e3c6040830184610a25565b949350505050565b7f4f776e61626c653a206e6577206f776e657220697320746865207a65726f206160008201527f6464726573730000000000000000000000000000000000000000000000000000602082015250565b6000610ea0602683610bff565b9150610eab82610e44565b604082019050919050565b60006020820190508181036000830152610ecf81610e93565b9050919050565b7f4f776e61626c653a2063616c6c6572206973206e6f7420746865206f776e6572600082015250565b6000610f0c602083610bff565b9150610f1782610ed6565b602082019050919050565b60006020820190508181036000830152610f3b81610eff565b905091905056fea2646970667358221220b8b19e24fbb7e770eb95da16bc555f9c99c5febd8d905d21e20d0ae80d1ac4d064736f6c63430008120033",
  "immutableReferences": {},
  "source": "// SPDX-License-Identifier: SEE LICENSE IN LICENSE\npragma solidity ^0.8.0;\n\nimport \"../node_modules/@openzeppelin/contracts/token/ERC20/IERC20.sol\";\nimport \"../node_modules/@openzeppelin/contracts/access/Ownable.sol\";\n\ncontract Wallet is Ownable {\n    struct Token {\n        bytes32 symbol;\n        address tokenAddress;\n    }\n\n    mapping(bytes32 => Token) public tokens;\n    bytes32[] public tokenList;\n\n    mapping(address => mapping(bytes32 => uint256)) public balances;\n\n    modifier tokenExist(bytes32 symbol) {\n        require(\n            tokens[symbol].tokenAddress != address(0),\n            \"tokens does not exist\"\n        );\n        _;\n    }\n\n    function addToken(bytes32 symbol, address tokenAddress) external onlyOwner {\n        tokens[symbol] = Token(symbol, tokenAddress);\n        tokenList.push(symbol);\n    }\n\n    function deposit(uint amount, bytes32 symbol) external tokenExist(symbol) {\n        balances[msg.sender][symbol] += amount;\n        IERC20(tokens[symbol].tokenAddress).transferFrom(\n            msg.sender,\n            address(this),\n            amount\n        );\n    }\n\n    function withdraw(uint amount, bytes32 symbol) external tokenExist(symbol) {\n        require(\n            balances[msg.sender][symbol] >= amount,\n            \"Balance not sufficient\"\n        );\n\n        balances[msg.sender][symbol] -= amount;\n        IERC20(tokens[symbol].tokenAddress).transfer(msg.sender, amount);\n    }\n}\n",
  "sourcePath": "/Users/nemi/Projects/dex_emerys_v2/contracts/Wallet.sol",
  "compiler": {
    "name": "solc",
    "version": "0.8.18+commit.87f61d96.Emscripten.clang"
  },
  "schemaVersion": "3.4.11",
  "updatedAt": "2023-02-13T13:02:17.085Z",
  "networkType": "ethereum",
  "devdoc": {
    "kind": "dev",
    "methods": {
      "owner()": {
        "details": "Returns the address of the current owner."
      },
      "renounceOwnership()": {
        "details": "Leaves the contract without owner. It will not be possible to call `onlyOwner` functions anymore. Can only be called by the current owner. NOTE: Renouncing ownership will leave the contract without an owner, thereby removing any functionality that is only available to the owner."
      },
      "transferOwnership(address)": {
        "details": "Transfers ownership of the contract to a new account (`newOwner`). Can only be called by the current owner."
      }
    },
    "version": 1
  },
  "userdoc": {
    "kind": "user",
    "methods": {},
    "version": 1
  }
}